{
  "_format": "hh-sol-artifact-1",
  "contractName": "CreatorNFT",
  "sourceName": "contracts/CreatorNFT.sol",
  "abi": [
    {
      "inputs": [],
      "stateMutability": "nonpayable",
      "type": "constructor"
    },
    {
      "anonymous": false,
      "inputs": [
        {
          "indexed": true,
          "internalType": "address",
          "name": "owner",
          "type": "address"
        },
        {
          "indexed": true,
          "internalType": "address",
          "name": "approved",
          "type": "address"
        },
        {
          "indexed": true,
          "internalType": "uint256",
          "name": "tokenId",
          "type": "uint256"
        }
      ],
      "name": "Approval",
      "type": "event"
    },
    {
      "anonymous": false,
      "inputs": [
        {
          "indexed": true,
          "internalType": "address",
          "name": "owner",
          "type": "address"
        },
        {
          "indexed": true,
          "internalType": "address",
          "name": "operator",
          "type": "address"
        },
        {
          "indexed": false,
          "internalType": "bool",
          "name": "approved",
          "type": "bool"
        }
      ],
      "name": "ApprovalForAll",
      "type": "event"
    },
    {
      "anonymous": false,
      "inputs": [
        {
          "indexed": true,
          "internalType": "uint256",
          "name": "tokenId",
          "type": "uint256"
        },
        {
          "indexed": false,
          "internalType": "address",
          "name": "seller",
          "type": "address"
        },
        {
          "indexed": false,
          "internalType": "address",
          "name": "owner",
          "type": "address"
        },
        {
          "indexed": false,
          "internalType": "uint256",
          "name": "price",
          "type": "uint256"
        },
        {
          "indexed": false,
          "internalType": "bool",
          "name": "sold",
          "type": "bool"
        }
      ],
      "name": "MarketItemCreated",
      "type": "event"
    },
    {
      "anonymous": false,
      "inputs": [
        {
          "indexed": true,
          "internalType": "address",
          "name": "from",
          "type": "address"
        },
        {
          "indexed": true,
          "internalType": "address",
          "name": "to",
          "type": "address"
        },
        {
          "indexed": true,
          "internalType": "uint256",
          "name": "tokenId",
          "type": "uint256"
        }
      ],
      "name": "Transfer",
      "type": "event"
    },
    {
      "inputs": [
        {
          "internalType": "address",
          "name": "to",
          "type": "address"
        },
        {
          "internalType": "uint256",
          "name": "tokenId",
          "type": "uint256"
        }
      ],
      "name": "approve",
      "outputs": [],
      "stateMutability": "nonpayable",
      "type": "function"
    },
    {
      "inputs": [
        {
          "internalType": "address",
          "name": "owner",
          "type": "address"
        }
      ],
      "name": "balanceOf",
      "outputs": [
        {
          "internalType": "uint256",
          "name": "",
          "type": "uint256"
        }
      ],
      "stateMutability": "view",
      "type": "function"
    },
    {
      "inputs": [
        {
          "internalType": "string",
          "name": "tokenURI",
          "type": "string"
        },
        {
          "internalType": "uint256",
          "name": "price",
          "type": "uint256"
        }
      ],
      "name": "createToken",
      "outputs": [
        {
          "internalType": "uint256",
          "name": "",
          "type": "uint256"
        }
      ],
      "stateMutability": "payable",
      "type": "function"
    },
    {
      "inputs": [],
      "name": "fetchMarketItems",
      "outputs": [
        {
          "components": [
            {
              "internalType": "uint256",
              "name": "tokenId",
              "type": "uint256"
            },
            {
              "internalType": "address payable",
              "name": "seller",
              "type": "address"
            },
            {
              "internalType": "address payable",
              "name": "owner",
              "type": "address"
            },
            {
              "internalType": "uint256",
              "name": "price",
              "type": "uint256"
            },
            {
              "internalType": "bool",
              "name": "sold",
              "type": "bool"
            }
          ],
          "internalType": "struct CreatorNFT.MarketItem[]",
          "name": "",
          "type": "tuple[]"
        }
      ],
      "stateMutability": "view",
      "type": "function"
    },
    {
      "inputs": [
        {
          "internalType": "uint256",
          "name": "tokenId",
          "type": "uint256"
        }
      ],
      "name": "getApproved",
      "outputs": [
        {
          "internalType": "address",
          "name": "",
          "type": "address"
        }
      ],
      "stateMutability": "view",
      "type": "function"
    },
    {
      "inputs": [],
      "name": "getListingPrice",
      "outputs": [
        {
          "internalType": "uint256",
          "name": "",
          "type": "uint256"
        }
      ],
      "stateMutability": "view",
      "type": "function"
    },
    {
      "inputs": [
        {
          "internalType": "address",
          "name": "owner",
          "type": "address"
        },
        {
          "internalType": "address",
          "name": "operator",
          "type": "address"
        }
      ],
      "name": "isApprovedForAll",
      "outputs": [
        {
          "internalType": "bool",
          "name": "",
          "type": "bool"
        }
      ],
      "stateMutability": "view",
      "type": "function"
    },
    {
      "inputs": [],
      "name": "name",
      "outputs": [
        {
          "internalType": "string",
          "name": "",
          "type": "string"
        }
      ],
      "stateMutability": "view",
      "type": "function"
    },
    {
      "inputs": [
        {
          "internalType": "uint256",
          "name": "tokenId",
          "type": "uint256"
        }
      ],
      "name": "ownerOf",
      "outputs": [
        {
          "internalType": "address",
          "name": "",
          "type": "address"
        }
      ],
      "stateMutability": "view",
      "type": "function"
    },
    {
      "inputs": [
        {
          "internalType": "address",
          "name": "from",
          "type": "address"
        },
        {
          "internalType": "address",
          "name": "to",
          "type": "address"
        },
        {
          "internalType": "uint256",
          "name": "tokenId",
          "type": "uint256"
        }
      ],
      "name": "safeTransferFrom",
      "outputs": [],
      "stateMutability": "nonpayable",
      "type": "function"
    },
    {
      "inputs": [
        {
          "internalType": "address",
          "name": "from",
          "type": "address"
        },
        {
          "internalType": "address",
          "name": "to",
          "type": "address"
        },
        {
          "internalType": "uint256",
          "name": "tokenId",
          "type": "uint256"
        },
        {
          "internalType": "bytes",
          "name": "data",
          "type": "bytes"
        }
      ],
      "name": "safeTransferFrom",
      "outputs": [],
      "stateMutability": "nonpayable",
      "type": "function"
    },
    {
      "inputs": [
        {
          "internalType": "address",
          "name": "operator",
          "type": "address"
        },
        {
          "internalType": "bool",
          "name": "approved",
          "type": "bool"
        }
      ],
      "name": "setApprovalForAll",
      "outputs": [],
      "stateMutability": "nonpayable",
      "type": "function"
    },
    {
      "inputs": [
        {
          "internalType": "bytes4",
          "name": "interfaceId",
          "type": "bytes4"
        }
      ],
      "name": "supportsInterface",
      "outputs": [
        {
          "internalType": "bool",
          "name": "",
          "type": "bool"
        }
      ],
      "stateMutability": "view",
      "type": "function"
    },
    {
      "inputs": [],
      "name": "symbol",
      "outputs": [
        {
          "internalType": "string",
          "name": "",
          "type": "string"
        }
      ],
      "stateMutability": "view",
      "type": "function"
    },
    {
      "inputs": [
        {
          "internalType": "uint256",
          "name": "tokenId",
          "type": "uint256"
        }
      ],
      "name": "tokenURI",
      "outputs": [
        {
          "internalType": "string",
          "name": "",
          "type": "string"
        }
      ],
      "stateMutability": "view",
      "type": "function"
    },
    {
      "inputs": [
        {
          "internalType": "address",
          "name": "from",
          "type": "address"
        },
        {
          "internalType": "address",
          "name": "to",
          "type": "address"
        },
        {
          "internalType": "uint256",
          "name": "tokenId",
          "type": "uint256"
        }
      ],
      "name": "transferFrom",
      "outputs": [],
      "stateMutability": "nonpayable",
      "type": "function"
    }
  ],
  "bytecode": "0x60806040526658d15e176280006009553480156200001c57600080fd5b506040518060400160405280601081526020017f4d657461766572736520546f6b656e73000000000000000000000000000000008152506040518060400160405280600481526020017f4d455454000000000000000000000000000000000000000000000000000000008152508160009080519060200190620000a192919062000104565b508060019080519060200190620000ba92919062000104565b50505033600a60006101000a81548173ffffffffffffffffffffffffffffffffffffffff021916908373ffffffffffffffffffffffffffffffffffffffff16021790555062000219565b8280546200011290620001b4565b90600052602060002090601f01602090048101928262000136576000855562000182565b82601f106200015157805160ff191683800117855562000182565b8280016001018555821562000182579182015b828111156200018157825182559160200191906001019062000164565b5b50905062000191919062000195565b5090565b5b80821115620001b057600081600090555060010162000196565b5090565b60006002820490506001821680620001cd57607f821691505b60208210811415620001e457620001e3620001ea565b5b50919050565b7f4e487b7100000000000000000000000000000000000000000000000000000000600052602260045260246000fd5b61315d80620002296000396000f3fe6080604052600436106100f35760003560e01c80636352211e1161008a578063a22cb46511610059578063a22cb46514610343578063b88d4fde1461036c578063c87b56dd14610395578063e985e9c5146103d2576100f3565b80636352211e1461026e57806370a08231146102ab57806372b3b620146102e857806395d89b4114610318576100f3565b80630f08efe0116100c65780630f08efe0146101c657806312e85585146101f157806323b872dd1461021c57806342842e0e14610245576100f3565b806301ffc9a7146100f857806306fdde0314610135578063081812fc14610160578063095ea7b31461019d575b600080fd5b34801561010457600080fd5b5061011f600480360381019061011a9190612169565b61040f565b60405161012c91906126ef565b60405180910390f35b34801561014157600080fd5b5061014a6104f1565b604051610157919061270a565b60405180910390f35b34801561016c57600080fd5b506101876004803603810190610182919061220f565b610583565b6040516101949190612621565b60405180910390f35b3480156101a957600080fd5b506101c460048036038101906101bf919061212d565b6105c9565b005b3480156101d257600080fd5b506101db6106e1565b6040516101e891906126cd565b60405180910390f35b3480156101fd57600080fd5b50610206610996565b60405161021391906128ec565b60405180910390f35b34801561022857600080fd5b50610243600480360381019061023e9190612027565b6109a0565b005b34801561025157600080fd5b5061026c60048036038101906102679190612027565b610a00565b005b34801561027a57600080fd5b506102956004803603810190610290919061220f565b610a20565b6040516102a29190612621565b60405180910390f35b3480156102b757600080fd5b506102d260048036038101906102cd9190611fc2565b610ad2565b6040516102df91906128ec565b60405180910390f35b61030260048036038101906102fd91906121bb565b610b8a565b60405161030f91906128ec565b60405180910390f35b34801561032457600080fd5b5061032d610bcc565b60405161033a919061270a565b60405180910390f35b34801561034f57600080fd5b5061036a600480360381019061036591906120f1565b610c5e565b005b34801561037857600080fd5b50610393600480360381019061038e9190612076565b610c74565b005b3480156103a157600080fd5b506103bc60048036038101906103b7919061220f565b610cd6565b6040516103c9919061270a565b60405180910390f35b3480156103de57600080fd5b506103f960048036038101906103f49190611feb565b610de9565b60405161040691906126ef565b60405180910390f35b60007f80ac58cd000000000000000000000000000000000000000000000000000000007bffffffffffffffffffffffffffffffffffffffffffffffffffffffff1916827bffffffffffffffffffffffffffffffffffffffffffffffffffffffff191614806104da57507f5b5e139f000000000000000000000000000000000000000000000000000000007bffffffffffffffffffffffffffffffffffffffffffffffffffffffff1916827bffffffffffffffffffffffffffffffffffffffffffffffffffffffff1916145b806104ea57506104e982610e7d565b5b9050919050565b60606000805461050090612b8d565b80601f016020809104026020016040519081016040528092919081815260200182805461052c90612b8d565b80156105795780601f1061054e57610100808354040283529160200191610579565b820191906000526020600020905b81548152906001019060200180831161055c57829003601f168201915b5050505050905090565b600061058e82610ee7565b6004600083815260200190815260200160002060009054906101000a900473ffffffffffffffffffffffffffffffffffffffff169050919050565b60006105d482610a20565b90508073ffffffffffffffffffffffffffffffffffffffff168373ffffffffffffffffffffffffffffffffffffffff161415610645576040517f08c379a000000000000000000000000000000000000000000000000000000000815260040161063c9061286c565b60405180910390fd5b8073ffffffffffffffffffffffffffffffffffffffff16610664610f32565b73ffffffffffffffffffffffffffffffffffffffff16148061069357506106928161068d610f32565b610de9565b5b6106d2576040517f08c379a00000000000000000000000000000000000000000000000000000000081526004016106c99061280c565b60405180910390fd5b6106dc8383610f3a565b505050565b606060006106ef6007610ff3565b905060006106fd6008610ff3565b6107076007610ff3565b6107119190612a91565b90506000808267ffffffffffffffff811115610756577f4e487b7100000000000000000000000000000000000000000000000000000000600052604160045260246000fd5b60405190808252806020026020018201604052801561078f57816020015b61077c611d89565b8152602001906001900390816107745790505b50905060005b8481101561098b573073ffffffffffffffffffffffffffffffffffffffff16600b60006001846107c59190612a0a565b815260200190815260200160002060020160009054906101000a900473ffffffffffffffffffffffffffffffffffffffff1673ffffffffffffffffffffffffffffffffffffffff1614156109785760006001826108229190612a0a565b90506000600b60008381526020019081526020016000209050806040518060a0016040529081600082015481526020016001820160009054906101000a900473ffffffffffffffffffffffffffffffffffffffff1673ffffffffffffffffffffffffffffffffffffffff1673ffffffffffffffffffffffffffffffffffffffff1681526020016002820160009054906101000a900473ffffffffffffffffffffffffffffffffffffffff1673ffffffffffffffffffffffffffffffffffffffff1673ffffffffffffffffffffffffffffffffffffffff168152602001600382015481526020016004820160009054906101000a900460ff16151515158152505084868151811061095b577f4e487b7100000000000000000000000000000000000000000000000000000000600052603260045260246000fd5b60200260200101819052506001856109739190612a0a565b945050505b808061098390612bf0565b915050610795565b508094505050505090565b6000600954905090565b6109b16109ab610f32565b82611001565b6109f0576040517f08c379a00000000000000000000000000000000000000000000000000000000081526004016109e7906128ac565b60405180910390fd5b6109fb838383611096565b505050565b610a1b83838360405180602001604052806000815250610c74565b505050565b6000806002600084815260200190815260200160002060009054906101000a900473ffffffffffffffffffffffffffffffffffffffff169050600073ffffffffffffffffffffffffffffffffffffffff168173ffffffffffffffffffffffffffffffffffffffff161415610ac9576040517f08c379a0000000000000000000000000000000000000000000000000000000008152600401610ac09061284c565b60405180910390fd5b80915050919050565b60008073ffffffffffffffffffffffffffffffffffffffff168273ffffffffffffffffffffffffffffffffffffffff161415610b43576040517f08c379a0000000000000000000000000000000000000000000000000000000008152600401610b3a906127cc565b60405180910390fd5b600360008373ffffffffffffffffffffffffffffffffffffffff1673ffffffffffffffffffffffffffffffffffffffff168152602001908152602001600020549050919050565b6000610b9660076112fd565b6000610ba26007610ff3565b9050610bae3382611313565b610bb881856114ed565b610bc28184611561565b8091505092915050565b606060018054610bdb90612b8d565b80601f0160208091040260200160405190810160405280929190818152602001828054610c0790612b8d565b8015610c545780601f10610c2957610100808354040283529160200191610c54565b820191906000526020600020905b815481529060010190602001808311610c3757829003601f168201915b5050505050905090565b610c70610c69610f32565b8383611764565b5050565b610c85610c7f610f32565b83611001565b610cc4576040517f08c379a0000000000000000000000000000000000000000000000000000000008152600401610cbb906128ac565b60405180910390fd5b610cd0848484846118d1565b50505050565b6060610ce182610ee7565b6000600660008481526020019081526020016000208054610d0190612b8d565b80601f0160208091040260200160405190810160405280929190818152602001828054610d2d90612b8d565b8015610d7a5780601f10610d4f57610100808354040283529160200191610d7a565b820191906000526020600020905b815481529060010190602001808311610d5d57829003601f168201915b505050505090506000610d8b61192d565b9050600081511415610da1578192505050610de4565b600082511115610dd6578082604051602001610dbe9291906125fd565b60405160208183030381529060405292505050610de4565b610ddf84611944565b925050505b919050565b6000600560008473ffffffffffffffffffffffffffffffffffffffff1673ffffffffffffffffffffffffffffffffffffffff16815260200190815260200160002060008373ffffffffffffffffffffffffffffffffffffffff1673ffffffffffffffffffffffffffffffffffffffff16815260200190815260200160002060009054906101000a900460ff16905092915050565b60007f01ffc9a7000000000000000000000000000000000000000000000000000000007bffffffffffffffffffffffffffffffffffffffffffffffffffffffff1916827bffffffffffffffffffffffffffffffffffffffffffffffffffffffff1916149050919050565b610ef0816119ac565b610f2f576040517f08c379a0000000000000000000000000000000000000000000000000000000008152600401610f269061284c565b60405180910390fd5b50565b600033905090565b816004600083815260200190815260200160002060006101000a81548173ffffffffffffffffffffffffffffffffffffffff021916908373ffffffffffffffffffffffffffffffffffffffff160217905550808273ffffffffffffffffffffffffffffffffffffffff16610fad83610a20565b73ffffffffffffffffffffffffffffffffffffffff167f8c5be1e5ebec7d5bd14f71427d1e84f3dd0314c0f7b2291e5b200ac8c7c3b92560405160405180910390a45050565b600081600001549050919050565b60008061100d83610a20565b90508073ffffffffffffffffffffffffffffffffffffffff168473ffffffffffffffffffffffffffffffffffffffff16148061104f575061104e8185610de9565b5b8061108d57508373ffffffffffffffffffffffffffffffffffffffff1661107584610583565b73ffffffffffffffffffffffffffffffffffffffff16145b91505092915050565b8273ffffffffffffffffffffffffffffffffffffffff166110b682610a20565b73ffffffffffffffffffffffffffffffffffffffff161461110c576040517f08c379a00000000000000000000000000000000000000000000000000000000081526004016111039061274c565b60405180910390fd5b600073ffffffffffffffffffffffffffffffffffffffff168273ffffffffffffffffffffffffffffffffffffffff16141561117c576040517f08c379a00000000000000000000000000000000000000000000000000000000081526004016111739061278c565b60405180910390fd5b611187838383611a18565b611192600082610f3a565b6001600360008573ffffffffffffffffffffffffffffffffffffffff1673ffffffffffffffffffffffffffffffffffffffff16815260200190815260200160002060008282546111e29190612a91565b925050819055506001600360008473ffffffffffffffffffffffffffffffffffffffff1673ffffffffffffffffffffffffffffffffffffffff16815260200190815260200160002060008282546112399190612a0a565b92505081905550816002600083815260200190815260200160002060006101000a81548173ffffffffffffffffffffffffffffffffffffffff021916908373ffffffffffffffffffffffffffffffffffffffff160217905550808273ffffffffffffffffffffffffffffffffffffffff168473ffffffffffffffffffffffffffffffffffffffff167fddf252ad1be2c89b69c2b068fc378daa952ba7f163c4a11628f55a4df523b3ef60405160405180910390a46112f8838383611a1d565b505050565b6001816000016000828254019250508190555050565b600073ffffffffffffffffffffffffffffffffffffffff168273ffffffffffffffffffffffffffffffffffffffff161415611383576040517f08c379a000000000000000000000000000000000000000000000000000000000815260040161137a9061282c565b60405180910390fd5b61138c816119ac565b156113cc576040517f08c379a00000000000000000000000000000000000000000000000000000000081526004016113c39061276c565b60405180910390fd5b6113d860008383611a18565b6001600360008473ffffffffffffffffffffffffffffffffffffffff1673ffffffffffffffffffffffffffffffffffffffff16815260200190815260200160002060008282546114289190612a0a565b92505081905550816002600083815260200190815260200160002060006101000a81548173ffffffffffffffffffffffffffffffffffffffff021916908373ffffffffffffffffffffffffffffffffffffffff160217905550808273ffffffffffffffffffffffffffffffffffffffff16600073ffffffffffffffffffffffffffffffffffffffff167fddf252ad1be2c89b69c2b068fc378daa952ba7f163c4a11628f55a4df523b3ef60405160405180910390a46114e960008383611a1d565b5050565b6114f6826119ac565b611535576040517f08c379a000000000000000000000000000000000000000000000000000000000815260040161152c906127ec565b60405180910390fd5b8060066000848152602001908152602001600020908051906020019061155c929190611de6565b505050565b600081116115a4576040517f08c379a000000000000000000000000000000000000000000000000000000000815260040161159b906128cc565b60405180910390fd5b60095434146115e8576040517f08c379a00000000000000000000000000000000000000000000000000000000081526004016115df9061288c565b60405180910390fd5b6040518060a001604052808381526020013373ffffffffffffffffffffffffffffffffffffffff1681526020013073ffffffffffffffffffffffffffffffffffffffff16815260200182815260200160001515815250600b60008481526020019081526020016000206000820151816000015560208201518160010160006101000a81548173ffffffffffffffffffffffffffffffffffffffff021916908373ffffffffffffffffffffffffffffffffffffffff16021790555060408201518160020160006101000a81548173ffffffffffffffffffffffffffffffffffffffff021916908373ffffffffffffffffffffffffffffffffffffffff1602179055506060820151816003015560808201518160040160006101000a81548160ff021916908315150217905550905050611721333084611096565b817fb640004f1d14576d0c209e240cad0410e0d8c0c33a09375861fbadae2588a98d3330846000604051611758949392919061263c565b60405180910390a25050565b8173ffffffffffffffffffffffffffffffffffffffff168373ffffffffffffffffffffffffffffffffffffffff1614156117d3576040517f08c379a00000000000000000000000000000000000000000000000000000000081526004016117ca906127ac565b60405180910390fd5b80600560008573ffffffffffffffffffffffffffffffffffffffff1673ffffffffffffffffffffffffffffffffffffffff16815260200190815260200160002060008473ffffffffffffffffffffffffffffffffffffffff1673ffffffffffffffffffffffffffffffffffffffff16815260200190815260200160002060006101000a81548160ff0219169083151502179055508173ffffffffffffffffffffffffffffffffffffffff168373ffffffffffffffffffffffffffffffffffffffff167f17307eab39ab6107e8899845ad3d59bd9653f200f220920489ca2b5937696c31836040516118c491906126ef565b60405180910390a3505050565b6118dc848484611096565b6118e884848484611a22565b611927576040517f08c379a000000000000000000000000000000000000000000000000000000000815260040161191e9061272c565b60405180910390fd5b50505050565b606060405180602001604052806000815250905090565b606061194f82610ee7565b600061195961192d565b9050600081511161197957604051806020016040528060008152506119a4565b8061198384611bb9565b6040516020016119949291906125fd565b6040516020818303038152906040525b915050919050565b60008073ffffffffffffffffffffffffffffffffffffffff166002600084815260200190815260200160002060009054906101000a900473ffffffffffffffffffffffffffffffffffffffff1673ffffffffffffffffffffffffffffffffffffffff1614159050919050565b505050565b505050565b6000611a438473ffffffffffffffffffffffffffffffffffffffff16611d66565b15611bac578373ffffffffffffffffffffffffffffffffffffffff1663150b7a02611a6c610f32565b8786866040518563ffffffff1660e01b8152600401611a8e9493929190612681565b602060405180830381600087803b158015611aa857600080fd5b505af1925050508015611ad957506040513d601f19601f82011682018060405250810190611ad69190612192565b60015b611b5c573d8060008114611b09576040519150601f19603f3d011682016040523d82523d6000602084013e611b0e565b606091505b50600081511415611b54576040517f08c379a0000000000000000000000000000000000000000000000000000000008152600401611b4b9061272c565b60405180910390fd5b805181602001fd5b63150b7a0260e01b7bffffffffffffffffffffffffffffffffffffffffffffffffffffffff1916817bffffffffffffffffffffffffffffffffffffffffffffffffffffffff191614915050611bb1565b600190505b949350505050565b60606000821415611c01576040518060400160405280600181526020017f30000000000000000000000000000000000000000000000000000000000000008152509050611d61565b600082905060005b60008214611c33578080611c1c90612bf0565b915050600a82611c2c9190612a60565b9150611c09565b60008167ffffffffffffffff811115611c75577f4e487b7100000000000000000000000000000000000000000000000000000000600052604160045260246000fd5b6040519080825280601f01601f191660200182016040528015611ca75781602001600182028036833780820191505090505b5090505b60008514611d5a57600182611cc09190612a91565b9150600a85611ccf9190612c39565b6030611cdb9190612a0a565b60f81b818381518110611d17577f4e487b7100000000000000000000000000000000000000000000000000000000600052603260045260246000fd5b60200101907effffffffffffffffffffffffffffffffffffffffffffffffffffffffffffff1916908160001a905350600a85611d539190612a60565b9450611cab565b8093505050505b919050565b6000808273ffffffffffffffffffffffffffffffffffffffff163b119050919050565b6040518060a0016040528060008152602001600073ffffffffffffffffffffffffffffffffffffffff168152602001600073ffffffffffffffffffffffffffffffffffffffff168152602001600081526020016000151581525090565b828054611df290612b8d565b90600052602060002090601f016020900481019282611e145760008555611e5b565b82601f10611e2d57805160ff1916838001178555611e5b565b82800160010185558215611e5b579182015b82811115611e5a578251825591602001919060010190611e3f565b5b509050611e689190611e6c565b5090565b5b80821115611e85576000816000905550600101611e6d565b5090565b6000611e9c611e978461292c565b612907565b905082815260208101848484011115611eb457600080fd5b611ebf848285612b4b565b509392505050565b6000611eda611ed58461295d565b612907565b905082815260208101848484011115611ef257600080fd5b611efd848285612b4b565b509392505050565b600081359050611f14816130cb565b92915050565b600081359050611f29816130e2565b92915050565b600081359050611f3e816130f9565b92915050565b600081519050611f53816130f9565b92915050565b600082601f830112611f6a57600080fd5b8135611f7a848260208601611e89565b91505092915050565b600082601f830112611f9457600080fd5b8135611fa4848260208601611ec7565b91505092915050565b600081359050611fbc81613110565b92915050565b600060208284031215611fd457600080fd5b6000611fe284828501611f05565b91505092915050565b60008060408385031215611ffe57600080fd5b600061200c85828601611f05565b925050602061201d85828601611f05565b9150509250929050565b60008060006060848603121561203c57600080fd5b600061204a86828701611f05565b935050602061205b86828701611f05565b925050604061206c86828701611fad565b9150509250925092565b6000806000806080858703121561208c57600080fd5b600061209a87828801611f05565b94505060206120ab87828801611f05565b93505060406120bc87828801611fad565b925050606085013567ffffffffffffffff8111156120d957600080fd5b6120e587828801611f59565b91505092959194509250565b6000806040838503121561210457600080fd5b600061211285828601611f05565b925050602061212385828601611f1a565b9150509250929050565b6000806040838503121561214057600080fd5b600061214e85828601611f05565b925050602061215f85828601611fad565b9150509250929050565b60006020828403121561217b57600080fd5b600061218984828501611f2f565b91505092915050565b6000602082840312156121a457600080fd5b60006121b284828501611f44565b91505092915050565b600080604083850312156121ce57600080fd5b600083013567ffffffffffffffff8111156121e857600080fd5b6121f485828601611f83565b925050602061220585828601611fad565b9150509250929050565b60006020828403121561222157600080fd5b600061222f84828501611fad565b91505092915050565b60006122448383612577565b60a08301905092915050565b61225981612ad7565b82525050565b61226881612ac5565b82525050565b60006122798261299e565b61228381856129cc565b935061228e8361298e565b8060005b838110156122bf5781516122a68882612238565b97506122b1836129bf565b925050600181019050612292565b5085935050505092915050565b6122d581612ae9565b82525050565b6122e481612ae9565b82525050565b60006122f5826129a9565b6122ff81856129dd565b935061230f818560208601612b5a565b61231881612d26565b840191505092915050565b600061232e826129b4565b61233881856129ee565b9350612348818560208601612b5a565b61235181612d26565b840191505092915050565b6000612367826129b4565b61237181856129ff565b9350612381818560208601612b5a565b80840191505092915050565b600061239a6032836129ee565b91506123a582612d37565b604082019050919050565b60006123bd6025836129ee565b91506123c882612d86565b604082019050919050565b60006123e0601c836129ee565b91506123eb82612dd5565b602082019050919050565b60006124036024836129ee565b915061240e82612dfe565b604082019050919050565b60006124266019836129ee565b915061243182612e4d565b602082019050919050565b60006124496029836129ee565b915061245482612e76565b604082019050919050565b600061246c602e836129ee565b915061247782612ec5565b604082019050919050565b600061248f603e836129ee565b915061249a82612f14565b604082019050919050565b60006124b26020836129ee565b91506124bd82612f63565b602082019050919050565b60006124d56018836129ee565b91506124e082612f8c565b602082019050919050565b60006124f86021836129ee565b915061250382612fb5565b604082019050919050565b600061251b6024836129ee565b915061252682613004565b604082019050919050565b600061253e602e836129ee565b915061254982613053565b604082019050919050565b6000612561601c836129ee565b915061256c826130a2565b602082019050919050565b60a08201600082015161258d60008501826125df565b5060208201516125a06020850182612250565b5060408201516125b36040850182612250565b5060608201516125c660608501826125df565b5060808201516125d960808501826122cc565b50505050565b6125e881612b41565b82525050565b6125f781612b41565b82525050565b6000612609828561235c565b9150612615828461235c565b91508190509392505050565b6000602082019050612636600083018461225f565b92915050565b6000608082019050612651600083018761225f565b61265e602083018661225f565b61266b60408301856125ee565b61267860608301846122db565b95945050505050565b6000608082019050612696600083018761225f565b6126a3602083018661225f565b6126b060408301856125ee565b81810360608301526126c281846122ea565b905095945050505050565b600060208201905081810360008301526126e7818461226e565b905092915050565b600060208201905061270460008301846122db565b92915050565b600060208201905081810360008301526127248184612323565b905092915050565b600060208201905081810360008301526127458161238d565b9050919050565b60006020820190508181036000830152612765816123b0565b9050919050565b60006020820190508181036000830152612785816123d3565b9050919050565b600060208201905081810360008301526127a5816123f6565b9050919050565b600060208201905081810360008301526127c581612419565b9050919050565b600060208201905081810360008301526127e58161243c565b9050919050565b600060208201905081810360008301526128058161245f565b9050919050565b6000602082019050818103600083015261282581612482565b9050919050565b60006020820190508181036000830152612845816124a5565b9050919050565b60006020820190508181036000830152612865816124c8565b9050919050565b60006020820190508181036000830152612885816124eb565b9050919050565b600060208201905081810360008301526128a58161250e565b9050919050565b600060208201905081810360008301526128c581612531565b9050919050565b600060208201905081810360008301526128e581612554565b9050919050565b600060208201905061290160008301846125ee565b92915050565b6000612911612922565b905061291d8282612bbf565b919050565b6000604051905090565b600067ffffffffffffffff82111561294757612946612cf7565b5b61295082612d26565b9050602081019050919050565b600067ffffffffffffffff82111561297857612977612cf7565b5b61298182612d26565b9050602081019050919050565b6000819050602082019050919050565b600081519050919050565b600081519050919050565b600081519050919050565b6000602082019050919050565b600082825260208201905092915050565b600082825260208201905092915050565b600082825260208201905092915050565b600081905092915050565b6000612a1582612b41565b9150612a2083612b41565b9250827fffffffffffffffffffffffffffffffffffffffffffffffffffffffffffffffff03821115612a5557612a54612c6a565b5b828201905092915050565b6000612a6b82612b41565b9150612a7683612b41565b925082612a8657612a85612c99565b5b828204905092915050565b6000612a9c82612b41565b9150612aa783612b41565b925082821015612aba57612ab9612c6a565b5b828203905092915050565b6000612ad082612b21565b9050919050565b6000612ae282612b21565b9050919050565b60008115159050919050565b60007fffffffff0000000000000000000000000000000000000000000000000000000082169050919050565b600073ffffffffffffffffffffffffffffffffffffffff82169050919050565b6000819050919050565b82818337600083830152505050565b60005b83811015612b78578082015181840152602081019050612b5d565b83811115612b87576000848401525b50505050565b60006002820490506001821680612ba557607f821691505b60208210811415612bb957612bb8612cc8565b5b50919050565b612bc882612d26565b810181811067ffffffffffffffff82111715612be757612be6612cf7565b5b80604052505050565b6000612bfb82612b41565b91507fffffffffffffffffffffffffffffffffffffffffffffffffffffffffffffffff821415612c2e57612c2d612c6a565b5b600182019050919050565b6000612c4482612b41565b9150612c4f83612b41565b925082612c5f57612c5e612c99565b5b828206905092915050565b7f4e487b7100000000000000000000000000000000000000000000000000000000600052601160045260246000fd5b7f4e487b7100000000000000000000000000000000000000000000000000000000600052601260045260246000fd5b7f4e487b7100000000000000000000000000000000000000000000000000000000600052602260045260246000fd5b7f4e487b7100000000000000000000000000000000000000000000000000000000600052604160045260246000fd5b6000601f19601f8301169050919050565b7f4552433732313a207472616e7366657220746f206e6f6e20455243373231526560008201527f63656976657220696d706c656d656e7465720000000000000000000000000000602082015250565b7f4552433732313a207472616e736665722066726f6d20696e636f72726563742060008201527f6f776e6572000000000000000000000000000000000000000000000000000000602082015250565b7f4552433732313a20746f6b656e20616c7265616479206d696e74656400000000600082015250565b7f4552433732313a207472616e7366657220746f20746865207a65726f2061646460008201527f7265737300000000000000000000000000000000000000000000000000000000602082015250565b7f4552433732313a20617070726f766520746f2063616c6c657200000000000000600082015250565b7f4552433732313a2061646472657373207a65726f206973206e6f74206120766160008201527f6c6964206f776e65720000000000000000000000000000000000000000000000602082015250565b7f45524337323155524953746f726167653a2055524920736574206f66206e6f6e60008201527f6578697374656e7420746f6b656e000000000000000000000000000000000000602082015250565b7f4552433732313a20617070726f76652063616c6c6572206973206e6f7420746f60008201527f6b656e206f776e6572206e6f7220617070726f76656420666f7220616c6c0000602082015250565b7f4552433732313a206d696e7420746f20746865207a65726f2061646472657373600082015250565b7f4552433732313a20696e76616c696420746f6b656e2049440000000000000000600082015250565b7f4552433732313a20617070726f76616c20746f2063757272656e74206f776e6560008201527f7200000000000000000000000000000000000000000000000000000000000000602082015250565b7f5072696365206d75737420626520657175616c20746f206c697374696e67207060008201527f7269636500000000000000000000000000000000000000000000000000000000602082015250565b7f4552433732313a2063616c6c6572206973206e6f7420746f6b656e206f776e6560008201527f72206e6f7220617070726f766564000000000000000000000000000000000000602082015250565b7f5072696365206d757374206265206174206c6561737420312077656900000000600082015250565b6130d481612ac5565b81146130df57600080fd5b50565b6130eb81612ae9565b81146130f657600080fd5b50565b61310281612af5565b811461310d57600080fd5b50565b61311981612b41565b811461312457600080fd5b5056fea2646970667358221220e8a1d9d8bf77aa7b16c08738c6a167d46a4d336dc8a8fd5792917f71d2a8743464736f6c63430008040033",
  "linkReferences": {},
  "deployedLinkReferences": {}
}